:100000000C9434000C9452020C947B020C94A402C5
:100010000C9410030C9410030C9410030C94100314
:100020000C9410030C9410030C9410030C94100304
:100030000C9410030C9410030C9410030C941003F4
:100040000C9410030C9410030C9410030C941003E4
:100050000C9410030060007000062E007000768083
:100060000076007E00063E0011241FBECFE5D8E0DA
:10007000DEBFCDBFE4E5F0E040E017C0B591A5914B
:1000800035912591059107FD0CC095918591EF0162
:10009000F92FE82F05900D92A217B307D9F7FE01AB
:1000A00004C01D92A217B307E1F7E736F40731F752
:0C00B0000E9400030C94F502F894FFCFAE
:1000BC00CF92DF92EF92CF93DF93A82FCB010097D3
:1000CC00A10509F4B4C09C014A2F2E5F3F4F4F4F3E
:1000DC00F901249147FD2081213061F56C01EA2E54
:1000EC000196A11DFC019491A7FD9081E92FF0E0F0
:1000FC00EE0FFF1FE05AFF4FA081B1812C91F6014A
:10010C003491E7FC308181E090E002C0880F991FA8
:10011C003A95E2F7822B8C93AE2DC6010396A11D66
:10012C00FC014491A7FD40818E2DB6010E949401E3
:10013C0081E080C021113DC06C01EA2E2FEFC21A64
:10014C00D20AE20AF6012491E7FC2081E22FF0E0CA
:10015C00EE0FFF1FE05AFF4FC081D1812881FC01B7
:10016C003491A7FD308141E050E0BA0102C0660F26
:10017C00771F3A95E2F7609526232883F6012491A0
:10018C00E7FC2081E22FF0E0EE0FFF1FE859FF4F54
:10019C00C081D1812881FC018491A7FD808102C09E
:1001AC00440F551F8A95E2F740954223488381E01E
:1001BC0041C021113EC06C01EA2E2FEFC21AD20AA7
:1001CC00E20AF6012491E7FC2081E22FF0E0EE0F29
:1001DC00FF1FE05AFF4FC081D1812881FC0134916F
:1001EC00A7FD308141E050E0BA0102C0660F771FD5
:1001FC003A95E2F7609526232883F6012491E7FCD3
:10020C002081E22FF0E0EE0FFF1FE859FF4FC08175
:10021C00D1812881FC018491A7FD808102C0440F0B
:10022C00551F8A95E2F7422B488381E003C082E098
:10023C0001C080E0DF91CF91EF90DF90CF900895D7
:10024C00813069F120F0823009F451C05FC0613017
:10025C0071F028F0623099F06330C9F059C085B75D
:10026C008E7F85BF85B78D7F85BF81E0089585B76B
:10027C00816085BF85B78D7F85BF81E0089585B787
:10028C008E7F85BF85B7826085BF81E0089585B775
:10029C00816085BF85B7826085BF81E0089561303C
:1002AC0071F028F0623099F06330C9F033C085B733
:1002BC008B7F85BF85B7877F85BF81E0089585B724
:1002CC00846085BF85B7877F85BF81E0089585B73A
:1002DC008B7F85BF85B7886085BF81E0089585B722
:1002EC00846085BF85B7886085BF81E008956230E2
:1002FC0019F0633031F010C084B78F7B84BF81E07C
:10030C00089584B7806484BF81E0089580E00895E7
:0C031C0080E0089580E0089580E00895DE
:10032800CF92DF92EF926B01E82E6115710581057E
:1003380009F443C0413001F5A82FCB010196A11D56
:10034800FC018491A7FD8081E82FF0E0EE0FFF1FEC
:10035800E859FF4FA081B1812C91F6013491E7FC57
:10036800308181E090E002C0880F991F3A95E2F74A
:10037800822B8C9381E022C0A82FCB010196A11D6E
:10038800FC018491A7FD8081E82FF0E0EE0FFF1FAC
:10039800E859FF4FA081B1812C91F6013491E7FC17
:1003A800308181E090E002C0880F991F3A95E2F70A
:1003B800809582238C9381E001C082E0EF90DF90EA
:0403C800CF90089535
:1003CC000F931F93CF93DF9300D000D0CDB7DEB740
:1003DC00009751F18C011B82BE016F5F7F4FDC01D6
:1003EC0012968C910E9424028130F9F4BE016F5F49
:1003FC007F4F80E80E945E00F801638182810E9439
:10040C002601813091F4D8011296EC911297F0E00C
:10041C002D913C91EE0FFF1FE059FF4F318320834C
:10042C009FB790689FBF01C082E00F900F900F9014
:0C043C000F90DF91CF911F910F91089558
:10044800813089F018F08230D1F026C083E0FB01BA
:10045800818382E080838BB780648BBF8AB7806496
:100468008ABF81E0089583E0FB01818380838BB795
:1004780080688BBF8AB780688ABF81E0089581E071
:10048800FB01818382E080838BB780628BBF8AB750
:0C04980080628ABF81E0089580E0089532
:1004A4001F920F920FB60F9211242F933F934F93E5
:1004B4005F936F937F938F939F93AF93BF93EF93C8
:1004C400FF93E0917000F0917100309709F0099565
:1004D400FF91EF91BF91AF919F918F917F916F9118
:1004E4005F914F913F912F910F900FBE0F901F90EE
:0204F400189559
:1004F6001F920F920FB60F9211242F933F934F9393
:100506005F936F937F938F939F93AF93BF93EF9375
:10051600FF93E0917200F0917300309709F009950E
:10052600FF91EF91BF91AF919F918F917F916F91C5
:100536005F914F913F912F910F900FBE0F901F909B
:02054600189506
:100548001F920F920FB60F9211242F933F934F9340
:100558005F936F937F938F939F93AF93BF93EF9323
:10056800FF93E0917400F0917500309709F00995B8
:10057800FF91EF91BF91AF919F918F917F916F9173
:100588005F914F913F912F910F900FBE0F901F9049
:020598001895B4
:10059A009B01482F61157105810501F1A82FCB0137
:1005AA000196A11DFC018491A7FD8081E82FF0E04E
:1005BA00EE0FFF1FE859FF4FA081B1815C91F9014D
:1005CA00249147FD208181E090E002C0880F991FA5
:1005DA002A95E2F785278C9381E0089582E00895B1
:1005EA00EC010E9415030E941403CE010E94160317
:0605FA00CE010E94120375
:100600006AE770E080E80E945E0086E790E00E9462
:04061000E601FFCF31
:0C0614006AE770E080E80E94CD020895C3
:040620000C94000036
:040624000E945C00D4
:02062800089533
:02062A00089531
:02062C0008952F
:08062E003A00370034003100EE
:080636003B00380035003200E2
:04063E000A030003A8
:0406420000020100B1
:00000001FF
